:020000040000FA
:100000008316F03086008501811383128C018D01E7
:1000100018208C0A1D2018208C0A1D201D20182055
:100020008C0A1D201D201D2018208C0A182006284F
:100030000C083C2086002020080004308D070800B2
:10004000061A2528061E222839208D0A861A2B28F2
:10005000861E282839208D0A061B3128061F2E28C7
:1000600039208D0A861B3728861F342839208D01B8
:1000700008000D088500080082070E340D340B348B
:02008000073443
:040082000034003412
:02400E00FD3F74
:00000001FF
